:100000000C9462000C948A000C948A000C948A0070
:100010000C948A000C948A000C948A000C948A0038
:100020000C948A000C948A000C948A000C948A0028
:100030000C948A000C948A000C948A000C948A0018
:100040000C94F7020C948A000C9467030C944103FF
:100050000C948A000C948A000C948A000C948A00F8
:100060000C948A000C948A000000000024002700F1
:100070002A0000000000250028002B0000000000DE
:1000800023002600290004040404040404040202DA
:100090000202020203030303030301020408102007
:1000A0004080010204081020010204081020000012
:1000B0000008000201000003040700000000000027
:1000C0000000070511241FBECFEFD8E0DEBFCDBF73
:1000D00011E0A0E0B1E0E8E7FAE002C005900D927F
:1000E000A236B107D9F722E0A2E6B1E001C01D9225
:1000F000AE30B207E1F710E0C2E6D0E004C02197CD
:10010000FE010E943405C136D107C9F70E94A2033F
:100110000C943A050C940000833081F028F481306F
:1001200099F08230A9F008958730A9F08830C9F09D
:100130008430B1F4809180008F7D03C08091800075
:100140008F7780938000089584B58F7784BD08955C
:1001500084B58F7DFBCF8091B0008F778093B00006
:1001600008958091B0008F7DF9CFCF93DF93282F32
:1001700030E0F901E255FF4F8491F901E656FF4F57
:10018000D491F901EA57FF4FC491CC23A1F081111A
:100190000E948C00EC2FF0E0EE0FFF1FE458FF4FA1
:1001A000A591B491EC91ED2381E090E009F480E019
:1001B000DF91CF91089580E090E0FACF1F93CF9325
:1001C000DF93282F30E0F901E255FF4F8491F901C8
:1001D000E656FF4FD491F901EA57FF4FC491CC2363
:1001E000A9F0162F81110E948C00EC2FF0E0EE0F89
:1001F000FF1FEE58FF4FA591B4918FB7F894EC9183
:10020000111108C0D095DE23DC938FBFDF91CF9111
:100210001F910895DE2BF8CFCF93DF9390E0FC0180
:10022000E656FF4F24918A579F4FFC018491882303
:10023000D1F090E0880F991FFC01E859FF4FA5917C
:10024000B491FC01EE58FF4FC591D49161110EC0DD
:100250009FB7F8948C91E22FE0958E238C932881A0
:10026000E223E8839FBFDF91CF9108958FB7F89481
:10027000EC91E22BEC938FBFF6CF1F93CF93DF93DC
:10028000182FEB0161E00E940C01209739F460E027
:10029000812FDF91CF911F910C94DE00CF3FD105CC
:1002A00011F461E0F5CFE12FF0E0E255FF4FE4916A
:1002B000E33031F140F4E130B1F0E230E1F0C03848
:1002C000D1057CF7E4CFE73029F1E83059F1E4308B
:1002D000B1F780918000806280938000D0938B0082
:1002E000C0938A0004C084B5806884BDC7BDDF9117
:1002F000CF911F91089584B5806284BDC8BDF7CFAA
:1003000080918000806880938000D0938900C093A2
:100310008800EDCF8091B00080688093B000C093DA
:10032000B300E5CF8091B00080628093B000C093AD
:10033000B400DDCFAF92BF92CF92DF92EF92FF92E7
:100340000F931F93CF93DF936C017B018B01040FFD
:10035000151FEB015E01AE18BF08C017D10759F099
:100360006991D601ED91FC910190F081E02DC601DB
:100370000995892B79F7C501DF91CF911F910F91D5
:10038000FF90EF90DF90CF90BF90AF900895FC0169
:10039000538D448D252F30E0842F90E0821B930BEA
:1003A000541710F0CF96089501970895FC01918D90
:1003B000828D981761F0A28DAE0FBF2FB11D5D9693
:1003C0008C91928D9F5F9F73928F90E008958FEF35
:1003D0009FEF0895FC01918D828D981731F0828DE9
:1003E000E80FF11D858D90E008958FEF9FEF089540
:1003F000FC01918D228D892F90E0805C9F4F821BA4
:1004000091098F739927089581E791E00E94F8017F
:1004100021E0892B09F420E0822F089580E090E00C
:10042000892B29F00E94040281110C940000089588
:10043000FC01A48DA80FB92FB11DA35ABF4F2C9159
:10044000848D90E001968F739927848FA689B78950
:100450002C93A089B1898C91837080648C93938D47
:10046000848D981306C00288F389E02D80818F7DEA
:1004700080830895EF92FF920F931F93CF93DF93A2
:10048000EC0181E0888F9B8D8C8D98131AC0E889D0
:10049000F989808185FF15C09FB7F894EE89FF899F
:1004A0006083E889F98980818370806480839FBF3D
:1004B00081E090E0DF91CF911F910F91FF90EF903D
:1004C0000895F62E0B8D10E00F5F1F4F0F7311274D
:1004D000E02E8C8D8E110CC00FB607FCFACFE88988
:1004E000F989808185FFF5CFCE010E941802F1CFF6
:1004F000EB8DEC0FFD2FF11DE35AFF4FF0829FB7FC
:10050000F8940B8FEA89FB8980818062CFCFCF93EB
:10051000DF93EC01888D8823B9F0AA89BB89E8892B
:10052000F9898C9185FD03C0808186FD0DC00FB6D1
:1005300007FCF7CF8C9185FFF2CF808185FFEDCF4F
:10054000CE010E941802E9CFDF91CF910895CF9399
:10055000DF93E2E6F1E0D181C281608170E08BE05F
:100560000E943D016D2F8CE00E94DE006C2F8DE01B
:10057000DF91CF910C94DE00CF93DF93E5E6F1E0BD
:10058000D181C281608170E08AE00E943D016D2FBF
:1005900088E00E94DE006C2F89E0DF91CF910C94FF
:1005A000DE008FEF80936501809362010E94BC02A0
:1005B0000C94A702CF93DF93FC0101900020E9F790
:1005C0003197AF01481B590BBC0181E791E00E94B4
:1005D0009A01EC0142E050E062E171E081E791E0D4
:1005E0000E949A018C0F9D1FDF91CF9108951F9259
:1005F0000F920FB60F9211242F933F938F939F93D7
:10060000AF93BF9380916D0190916E01A0916F01A6
:10061000B091700130916C0123E0230F2D3758F514
:100620000196A11DB11D20936C0180936D019093E3
:100630006E01A0936F01B093700180916801909159
:100640006901A0916A01B0916B010196A11DB11DD4
:100650008093680190936901A0936A01B0936B0144
:10066000BF91AF919F918F913F912F910F900FBEAE
:100670000F901F90189526E8230F0296A11DB11D1B
:10068000D2CF1F920F920FB60F9211242F933F9348
:100690004F935F936F937F938F939F93AF93BF938A
:1006A000EF93FF9381E791E00E941802FF91EF9191
:1006B000BF91AF919F918F917F916F915F914F917A
:1006C0003F912F910F900FBE0F901F9018951F9282
:1006D0000F920FB60F9211242F938F939F93EF9346
:1006E000FF93E0918101F09182018081E091870187
:1006F000F091880182FD1BC0908180918A018F5FFB
:100700008F7320918B01821741F0E0918A01F0E014
:10071000EF58FE4F958F80938A01FF91EF919F9143
:100720008F912F910F900FBE0F901F901895808181
:10073000F4CF82E00E94B50021E0019709F020E0AB
:10074000822F0895789484B5826084BD84B58160D9
:1007500084BD85B5826085BD85B5816085BD80918C
:100760006E00816080936E00109281008091810004
:1007700082608093810080918100816080938100FC
:10078000809180008160809380008091B1008460BE
:100790008093B1008091B00081608093B00080911F
:1007A0007A00846080937A0080917A0082608093DE
:1007B0007A0080917A00816080937A0080917A003B
:1007C000806880937A001092C100E0918101F091DD
:1007D000820182E08083E0917D01F0917E011082B0
:1007E000E0917F01F091800180E180831092890186
:1007F000E0918501F091860186E08083E09183019C
:10080000F0918401808180618083E0918301F09187
:100810008401808188608083E0918301F09184016C
:10082000808180688083E0918301F09184018081E0
:100830008F7D808361E08AE00E940C0161E088E0A6
:100840000E940C0161E089E00E940C0161E08BE0F4
:100850000E940C0161E08CE00E940C0161E08DE0DF
:100860000E940C0160E082E00E940C0160E083E0E5
:100870000E940C0160E084E00E940C0160E087E0CF
:100880000E940C0160E086E00E940C0160E085E0BF
:100890000E940C010E94BC020E94A70200E010E02E
:1008A000C1E087E00E94B500019729F586E00E942B
:1008B000B500019701F585E00E94B500892BD9F4B8
:1008C00084E00E94B500892BB1F483E00E94B5005A
:1008D000019789F40E949903882369F085E191E0EA
:1008E0000E94DA02C093660110926701C09363010F
:1008F0001092640129C087E00E94B500892B91F510
:1009000086E00E94B500892B69F585E00E94B5005C
:10091000892B41F584E00E94B500892B19F583E00D
:100920000E94B5000197F1F40E9499038823D1F049
:100930008AE291E00E94DA0210926301C09364019E
:10094000C0936601109267010E94D1020115110542
:1009500009F4A7CF0E940402882309F4A2CF0E94C1
:1009600000009FCF87E00E94B500019711F586E057
:100970000E94B5000197E9F485E00E94B500892B3B
:10098000C1F484E00E94B500892B99F483E00E94B1
:10099000B500892B71F482E00E94B500892B49F4DF
:1009A0008DE391E00E94DA0210926601C093670124
:1009B0009DCF87E00E94B500019741F686E00E9436
:1009C000B500019719F685E00E94B500019709F07E
:1009D000BDCF84E00E94B500019709F0B7CF83E056
:1009E0000E94B500019709F0B1CF0E9499038823B6
:1009F00009F4ACCF81E591E00E94DA021092650122
:100A0000109262010E94BC020E94A7029FCFE1E700
:100A1000F1E01382128288EE93E0A0E0B0E08483DC
:100A20009583A683B78384E091E09183808385ECEE
:100A300090E09587848784EC90E09787868780ECA8
:100A400090E0918B808B81EC90E0938B828B82EC99
:100A500090E0958B848B86EC90E0978B868B118E43
:100A6000128E138E148E0895EE0FFF1F0590F491D1
:080A7000E02D0994F894FFCF7A
:100A7800000000003A029A01C7018702F801D60176
:100A8800EA010D0A0043454E545245204C494E4553
:100A9800206465746563746564004C454654204C55
:100AA800494E45206465746563746564005249471E
:100AB8004854204C494E45206465746563746564E8
:100AC800004E4F204C494E4520646574656374653B
:020AD8006400B8
:00000001FF
